{
    "contractName": "ConvertLib",
    "abi": [
        {
            "constant": true,
            "inputs": [
                {
                    "internalType": "uint256",
                    "name": "amount",
                    "type": "uint256"
                },
                {
                    "internalType": "uint256",
                    "name": "conversionRate",
                    "type": "uint256"
                }
            ],
            "name": "convert",
            "outputs": [
                {
                    "internalType": "uint256",
                    "name": "convertedAmount",
                    "type": "uint256"
                }
            ],
            "payable": false,
            "stateMutability": "pure",
            "type": "function"
        }
    ],
    "bytecode": "60a3610024600b82828239805160001a607314601757fe5b30600052607381538281f3fe730000000000000000000000000000000000000000301460806040526004361060335760003560e01c806396e4ee3d146038575b600080fd5b605860048036036040811015604c57600080fd5b5080359060200135606a565b60408051918252519081900360200190f35b029056fea265627a7a72315820f7e9a322713191aa3340dce3c5ad385e907875ec655cb6c5541e166077d26d0164736f6c63430005100032",
    "sourcePath": "/home/nawasrah/Desktop/emad/mytruffle/contracts/MetaCoin.sol",
    "compiler": {
        "name": "solc",
        "version": "0.5.16+commit.9c3226ce"
    },
    "functionHashes": {
        "convert(uint256,uint256)": "96e4ee3d"
    },
    "gasEstimates": {
        "creation": {
            "codeDepositCost": "32600",
            "executionCost": "112",
            "totalCost": "32712"
        },
        "external": {
            "convert(uint256,uint256)": "219"
        }
    }
}