{
    "contractName": "item",
    "abi": [
        {
            "inputs": [],
            "name": "getProducts",
            "outputs": [
                {
                    "internalType": "address",
                    "name": "_sender",
                    "type": "address"
                },
                {
                    "internalType": "string",
                    "name": "prod_name",
                    "type": "string"
                },
                {
                    "internalType": "string",
                    "name": "cate",
                    "type": "string"
                },
                {
                    "internalType": "string",
                    "name": "Alternative",
                    "type": "string"
                },
                {
                    "internalType": "uint256",
                    "name": "id1",
                    "type": "uint256"
                },
                {
                    "internalType": "uint256",
                    "name": "id2",
                    "type": "uint256"
                }
            ],
            "stateMutability": "view",
            "type": "function"
        },
        {
            "inputs": [
                {
                    "internalType": "string",
                    "name": "prod_name",
                    "type": "string"
                },
                {
                    "internalType": "string",
                    "name": "cate",
                    "type": "string"
                },
                {
                    "internalType": "string",
                    "name": "Alternative",
                    "type": "string"
                },
                {
                    "internalType": "uint256",
                    "name": "id1",
                    "type": "uint256"
                },
                {
                    "internalType": "uint256",
                    "name": "id2",
                    "type": "uint256"
                }
            ],
            "name": "setProducts",
            "outputs": [],
            "stateMutability": "nonpayable",
            "type": "function"
        }
    ],
    "bytecode": "608060405234801561001057600080fd5b506105fe806100206000396000f3fe608060405234801561001057600080fd5b50600436106100365760003560e01c80637c2e44f31461003b578063c29b2f2014610050575b600080fd5b61004e61004936600461033f565b610073565b005b6100586100ba565b60405161006a9695949392919061041f565b60405180910390f35b600080546001600160a01b0319163317905560016100918682610508565b50600261009e8582610508565b5060036100ab8482610508565b50600491909155600555505050565b6000606080606060008060008054906101000a90046001600160a01b03166001600260036004546005548480546100f09061047f565b80601f016020809104026020016040519081016040528092919081815260200182805461011c9061047f565b80156101695780601f1061013e57610100808354040283529160200191610169565b820191906000526020600020905b81548152906001019060200180831161014c57829003601f168201915b5050505050945083805461017c9061047f565b80601f01602080910402602001604051908101604052809291908181526020018280546101a89061047f565b80156101f55780601f106101ca576101008083540402835291602001916101f5565b820191906000526020600020905b8154815290600101906020018083116101d857829003601f168201915b505050505093508280546102089061047f565b80601f01602080910402602001604051908101604052809291908181526020018280546102349061047f565b80156102815780601f1061025657610100808354040283529160200191610281565b820191906000526020600020905b81548152906001019060200180831161026457829003601f168201915b50505050509250955095509550955095509550909192939495565b634e487b7160e01b600052604160045260246000fd5b600082601f8301126102c357600080fd5b813567ffffffffffffffff808211156102de576102de61029c565b604051601f8301601f19908116603f011681019082821181831017156103065761030661029c565b8160405283815286602085880101111561031f57600080fd5b836020870160208301376000602085830101528094505050505092915050565b600080600080600060a0868803121561035757600080fd5b853567ffffffffffffffff8082111561036f57600080fd5b61037b89838a016102b2565b9650602088013591508082111561039157600080fd5b61039d89838a016102b2565b955060408801359150808211156103b357600080fd5b506103c0888289016102b2565b9598949750949560608101359550608001359392505050565b6000815180845260005b818110156103ff576020818501810151868301820152016103e3565b506000602082860101526020601f19601f83011685010191505092915050565b6001600160a01b038716815260c060208201819052600090610443908301886103d9565b828103604084015261045581886103d9565b9050828103606084015261046981876103d9565b6080840195909552505060a00152949350505050565b600181811c9082168061049357607f821691505b6020821081036104b357634e487b7160e01b600052602260045260246000fd5b50919050565b601f82111561050357600081815260208120601f850160051c810160208610156104e05750805b601f850160051c820191505b818110156104ff578281556001016104ec565b5050505b505050565b815167ffffffffffffffff8111156105225761052261029c565b61053681610530845461047f565b846104b9565b602080601f83116001811461056b57600084156105535750858301515b600019600386901b1c1916600185901b1785556104ff565b600085815260208120601f198616915b8281101561059a5788860151825594840194600190910190840161057b565b50858210156105b85787850151600019600388901b60f8161c191681555b5050505050600190811b0190555056fea2646970667358221220451491c169572fe817e91975ca4fad205fb0e72106fcc4cfdb4ea21fbcb0a89d64736f6c63430008130033",
    "sourcePath": "/home/nawasrah/Desktop/emad/mytruffle/contracts/item.sol",
    "compiler": {
        "name": "solc",
        "version": "0.8.19+commit.7dd6d404"
    },
    "functionHashes": {
        "getProducts()": "c29b2f20",
        "setProducts(string,string,string,uint256,uint256)": "7c2e44f3"
    },
    "gasEstimates": {
        "creation": {
            "codeDepositCost": "306800",
            "executionCost": "343",
            "totalCost": "307143"
        },
        "external": {
            "getProducts()": "infinite",
            "setProducts(string,string,string,uint256,uint256)": "infinite"
        }
    }
}