{
    "contractName": "Migrations",
    "abi": [
        {
            "constant": true,
            "inputs": [],
            "name": "owner",
            "outputs": [
                {
                    "name": "",
                    "type": "address"
                }
            ],
            "payable": false,
            "stateMutability": "view",
            "type": "function"
        },
        {
            "constant": true,
            "inputs": [],
            "name": "lastCompletedMigration",
            "outputs": [
                {
                    "name": "",
                    "type": "uint256"
                }
            ],
            "payable": false,
            "stateMutability": "view",
            "type": "function"
        },
        {
            "constant": false,
            "inputs": [
                {
                    "name": "completed",
                    "type": "uint256"
                }
            ],
            "name": "setCompleted",
            "outputs": [],
            "payable": false,
            "stateMutability": "nonpayable",
            "type": "function"
        },
        {
            "inputs": [],
            "payable": false,
            "stateMutability": "nonpayable",
            "type": "constructor"
        }
    ],
    "bytecode": "608060405234801561001057600080fd5b5060008054600160a060020a03191633179055610271806100326000396000f3fe608060405234801561001057600080fd5b506004361061005d577c010000000000000000000000000000000000000000000000000000000060003504638da5cb5b8114610062578063fbdbad3c14610080578063fdacd57614610095575b600080fd5b61006a6100aa565b60405161007791906101db565b60405180910390f35b6100886100c6565b60405161007791906101ff565b6100a86100a336600461013e565b6100cc565b005b60005473ffffffffffffffffffffffffffffffffffffffff1681565b60015481565b60005473ffffffffffffffffffffffffffffffffffffffff163314610126576040517f08c379a000000000000000000000000000000000000000000000000000000000815260040161011d906101ef565b60405180910390fd5b600155565b60006101378235610234565b9392505050565b60006020828403121561015057600080fd5b600061015c848461012b565b949350505050565b61016d81610216565b82525050565b600061018060258361020d565b7f4f6e6c7920746865206f776e65722063616e2063616c6c20746869732066756e81527f6374696f6e000000000000000000000000000000000000000000000000000000602082015260400192915050565b61016d81610234565b602081016101e98284610164565b92915050565b602080825281016101e981610173565b602081016101e982846101d2565b90815260200190565b600073ffffffffffffffffffffffffffffffffffffffff82166101e9565b9056fea265627a7a723058207f8b81ccccf536aec70ca3b60527b38d4ddfad2e9e011f4e1e617aadf498c7f06c6578706572696d656e74616cf50037",
    "sourcePath": "/home/nawasrah/Desktop/emad/mytruffle/contracts/item.sol",
    "compiler": {
        "name": "solc",
        "version": "0.5.4+commit.9549d8ff"
    },
    "functionHashes": {
        "lastCompletedMigration()": "fbdbad3c",
        "owner()": "8da5cb5b",
        "setCompleted(uint256)": "fdacd576"
    },
    "gasEstimates": {
        "creation": {
            "codeDepositCost": "125000",
            "executionCost": "20463",
            "totalCost": "145463"
        },
        "external": {
            "lastCompletedMigration()": "501",
            "owner()": "infinite",
            "setCompleted(uint256)": "20558"
        }
    }
}