{
  "contractName": "Item",
  "abi": [
    {
      "anonymous": false,
      "inputs": [
        {
          "indexed": false,
          "internalType": "uint256",
          "name": "productId",
          "type": "uint256"
        },
        {
          "indexed": false,
          "internalType": "string",
          "name": "productName",
          "type": "string"
        },
        {
          "indexed": false,
          "internalType": "string",
          "name": "category",
          "type": "string"
        },
        {
          "indexed": false,
          "internalType": "string",
          "name": "boycott",
          "type": "string"
        }
      ],
      "name": "ProductAdded",
      "type": "event"
    },
    {
      "anonymous": false,
      "inputs": [
        {
          "indexed": false,
          "internalType": "uint256",
          "name": "productId",
          "type": "uint256"
        },
        {
          "indexed": false,
          "internalType": "string",
          "name": "productName",
          "type": "string"
        }
      ],
      "name": "ProductDeleted",
      "type": "event"
    },
    {
      "inputs": [
        {
          "internalType": "uint256",
          "name": "",
          "type": "uint256"
        }
      ],
      "name": "categories",
      "outputs": [
        {
          "internalType": "string",
          "name": "",
          "type": "string"
        }
      ],
      "stateMutability": "view",
      "type": "function",
      "constant": true
    },
    {
      "inputs": [],
      "name": "productCount",
      "outputs": [
        {
          "internalType": "uint256",
          "name": "",
          "type": "uint256"
        }
      ],
      "stateMutability": "view",
      "type": "function",
      "constant": true
    },
    {
      "inputs": [
        {
          "internalType": "uint256",
          "name": "",
          "type": "uint256"
        }
      ],
      "name": "products",
      "outputs": [
        {
          "internalType": "string",
          "name": "productName",
          "type": "string"
        },
        {
          "internalType": "string",
          "name": "category",
          "type": "string"
        },
        {
          "internalType": "string",
          "name": "boycott",
          "type": "string"
        }
      ],
      "stateMutability": "view",
      "type": "function",
      "constant": true
    },
    {
      "inputs": [
        {
          "internalType": "string",
          "name": "_productName",
          "type": "string"
        },
        {
          "internalType": "string",
          "name": "_category",
          "type": "string"
        },
        {
          "internalType": "string",
          "name": "_boycott",
          "type": "string"
        }
      ],
      "name": "addProduct",
      "outputs": [],
      "stateMutability": "nonpayable",
      "type": "function"
    },
    {
      "inputs": [
        {
          "internalType": "string",
          "name": "_productName",
          "type": "string"
        }
      ],
      "name": "deleteProductByName",
      "outputs": [],
      "stateMutability": "nonpayable",
      "type": "function"
    },
    {
      "inputs": [],
      "name": "getAllProductNames",
      "outputs": [
        {
          "internalType": "string[]",
          "name": "",
          "type": "string[]"
        }
      ],
      "stateMutability": "view",
      "type": "function",
      "constant": true
    },
    {
      "inputs": [
        {
          "internalType": "string",
          "name": "_category",
          "type": "string"
        }
      ],
      "name": "getProductsByCategory",
      "outputs": [
        {
          "internalType": "string[]",
          "name": "",
          "type": "string[]"
        },
        {
          "internalType": "string[]",
          "name": "",
          "type": "string[]"
        },
        {
          "internalType": "string[]",
          "name": "",
          "type": "string[]"
        }
      ],
      "stateMutability": "view",
      "type": "function",
      "constant": true
    },
    {
      "inputs": [],
      "name": "getAllCategories",
      "outputs": [
        {
          "internalType": "string[]",
          "name": "",
          "type": "string[]"
        }
      ],
      "stateMutability": "view",
      "type": "function",
      "constant": true
    },
    {
      "inputs": [
        {
          "internalType": "string",
          "name": "_productName",
          "type": "string"
        }
      ],
      "name": "checkProduct",
      "outputs": [
        {
          "internalType": "string",
          "name": "productName",
          "type": "string"
        },
        {
          "internalType": "string",
          "name": "category",
          "type": "string"
        },
        {
          "internalType": "string",
          "name": "boycott",
          "type": "string"
        }
      ],
      "stateMutability": "view",
      "type": "function",
      "constant": true
    }
  ],
  "bytecode": "0x608060405234801561001057600080fd5b50611a34806100206000396000f3fe608060405234801561001057600080fd5b50600436106100935760003560e01c8063add14aa111610066578063add14aa11461014a578063c6cdbe5e14610168578063dadd0a5714610198578063e0f6ef87146101b6578063e8e40643146101d457610093565b80630e34b00e146100985780637acc0b20146100b45780638f38cc7b146100e6578063a739007a14610118575b600080fd5b6100b260048036038101906100ad9190611312565b6101f0565b005b6100ce60048036038101906100c991906113a9565b61039e565b6040516100dd9392919061168a565b60405180910390f35b61010060048036038101906100fb91906112d1565b610560565b60405161010f9392919061161c565b60405180910390f35b610132600480360381019061012d91906112d1565b610aba565b6040516101419392919061168a565b60405180910390f35b610152610d1b565b60405161015f91906115fa565b60405180910390f35b610182600480360381019061017d91906113a9565b610edb565b60405161018f9190611668565b60405180910390f35b6101a0610f87565b6040516101ad91906115fa565b60405180910390f35b6101be611060565b6040516101cb91906116f6565b60405180910390f35b6101ee60048036038101906101e991906112d1565b611066565b005b60028260405161020091906115cc565b908152602001604051809103902060009054906101000a900460ff166102945760038290806001815401808255809150506001900390600052602060002001600090919091909150908051906020019061025b929190611171565b50600160028360405161026e91906115cc565b908152602001604051809103902060006101000a81548160ff0219169083151502179055505b604051806060016040528084815260200183815260200182815250600080600454815260200190815260200160002060008201518160000190805190602001906102df929190611171565b5060208201518160010190805190602001906102fc929190611171565b506040820151816002019080519060200190610319929190611171565b5090505060045460018460405161033091906115cc565b9081526020016040518091039020819055507f2ad97e35e5231a127d0d7b6cd0aa552ec47d312eff0ef74961fb06c5ae9268846004548484846040516103799493929190611741565b60405180910390a16004600081548092919061039490611900565b9190505550505050565b60006020528060005260406000206000915090508060000180546103c1906118ce565b80601f01602080910402602001604051908101604052809291908181526020018280546103ed906118ce565b801561043a5780601f1061040f5761010080835404028352916020019161043a565b820191906000526020600020905b81548152906001019060200180831161041d57829003601f168201915b50505050509080600101805461044f906118ce565b80601f016020809104026020016040519081016040528092919081815260200182805461047b906118ce565b80156104c85780601f1061049d576101008083540402835291602001916104c8565b820191906000526020600020905b8154815290600101906020018083116104ab57829003601f168201915b5050505050908060020180546104dd906118ce565b80601f0160208091040260200160405190810160405280929190818152602001828054610509906118ce565b80156105565780601f1061052b57610100808354040283529160200191610556565b820191906000526020600020905b81548152906001019060200180831161053957829003601f168201915b5050505050905083565b60608060606000805b6004548110156105fd578560405160200161058491906115cc565b604051602081830303815290604052805190602001206000808381526020019081526020016000206001016040516020016105bf91906115e3565b6040516020818303038152906040528051906020012014156105ea5781806105e690611900565b9250505b80806105f590611900565b915050610569565b5060008167ffffffffffffffff811115610640577f4e487b7100000000000000000000000000000000000000000000000000000000600052604160045260246000fd5b60405190808252806020026020018201604052801561067357816020015b606081526020019060019003908161065e5790505b50905060008267ffffffffffffffff8111156106b8577f4e487b7100000000000000000000000000000000000000000000000000000000600052604160045260246000fd5b6040519080825280602002602001820160405280156106eb57816020015b60608152602001906001900390816106d65790505b50905060008367ffffffffffffffff811115610730577f4e487b7100000000000000000000000000000000000000000000000000000000600052604160045260246000fd5b60405190808252806020026020018201604052801561076357816020015b606081526020019060019003908161074e5790505b5090506000805b600454811015610aa4578960405160200161078591906115cc565b604051602081830303815290604052805190602001206000808381526020019081526020016000206001016040516020016107c091906115e3565b604051602081830303815290604052805190602001201415610a915760008082815260200190815260200160002060000180546107fc906118ce565b80601f0160208091040260200160405190810160405280929190818152602001828054610828906118ce565b80156108755780601f1061084a57610100808354040283529160200191610875565b820191906000526020600020905b81548152906001019060200180831161085857829003601f168201915b50505050508583815181106108b3577f4e487b7100000000000000000000000000000000000000000000000000000000600052603260045260246000fd5b602002602001018190525060008082815260200190815260200160002060010180546108de906118ce565b80601f016020809104026020016040519081016040528092919081815260200182805461090a906118ce565b80156109575780601f1061092c57610100808354040283529160200191610957565b820191906000526020600020905b81548152906001019060200180831161093a57829003601f168201915b5050505050848381518110610995577f4e487b7100000000000000000000000000000000000000000000000000000000600052603260045260246000fd5b602002602001018190525060008082815260200190815260200160002060020180546109c0906118ce565b80601f01602080910402602001604051908101604052809291908181526020018280546109ec906118ce565b8015610a395780601f10610a0e57610100808354040283529160200191610a39565b820191906000526020600020905b815481529060010190602001808311610a1c57829003601f168201915b5050505050838381518110610a77577f4e487b7100000000000000000000000000000000000000000000000000000000600052603260045260246000fd5b60200260200101819052508180610a8d90611900565b9250505b8080610a9c90611900565b91505061076a565b5083838397509750975050505050509193909250565b60608060606000600185604051610ad191906115cc565b90815260200160405180910390205490506004548110610b26576040517f08c379a0000000000000000000000000000000000000000000000000000000008152600401610b1d906116d6565b60405180910390fd5b6000806000838152602001908152602001600020604051806060016040529081600082018054610b55906118ce565b80601f0160208091040260200160405190810160405280929190818152602001828054610b81906118ce565b8015610bce5780601f10610ba357610100808354040283529160200191610bce565b820191906000526020600020905b815481529060010190602001808311610bb157829003601f168201915b50505050508152602001600182018054610be7906118ce565b80601f0160208091040260200160405190810160405280929190818152602001828054610c13906118ce565b8015610c605780601f10610c3557610100808354040283529160200191610c60565b820191906000526020600020905b815481529060010190602001808311610c4357829003601f168201915b50505050508152602001600282018054610c79906118ce565b80601f0160208091040260200160405190810160405280929190818152602001828054610ca5906118ce565b8015610cf25780601f10610cc757610100808354040283529160200191610cf2565b820191906000526020600020905b815481529060010190602001808311610cd557829003601f168201915b505050505081525050905080600001519450806020015193508060400151925050509193909250565b6060600060045467ffffffffffffffff811115610d61577f4e487b7100000000000000000000000000000000000000000000000000000000600052604160045260246000fd5b604051908082528060200260200182016040528015610d9457816020015b6060815260200190600190039081610d7f5790505b5090506000805b600454811015610ed25760008060008381526020019081526020016000206000018054610dc7906118ce565b905014610ebf576000808281526020019081526020016000206000018054610dee906118ce565b80601f0160208091040260200160405190810160405280929190818152602001828054610e1a906118ce565b8015610e675780601f10610e3c57610100808354040283529160200191610e67565b820191906000526020600020905b815481529060010190602001808311610e4a57829003601f168201915b5050505050838381518110610ea5577f4e487b7100000000000000000000000000000000000000000000000000000000600052603260045260246000fd5b60200260200101819052508180610ebb90611900565b9250505b8080610eca90611900565b915050610d9b565b50819250505090565b60038181548110610eeb57600080fd5b906000526020600020016000915090508054610f06906118ce565b80601f0160208091040260200160405190810160405280929190818152602001828054610f32906118ce565b8015610f7f5780601f10610f5457610100808354040283529160200191610f7f565b820191906000526020600020905b815481529060010190602001808311610f6257829003601f168201915b505050505081565b60606003805480602002602001604051908101604052809291908181526020016000905b82821015611057578382906000526020600020018054610fca906118ce565b80601f0160208091040260200160405190810160405280929190818152602001828054610ff6906118ce565b80156110435780601f1061101857610100808354040283529160200191611043565b820191906000526020600020905b81548152906001019060200180831161102657829003601f168201915b505050505081526020019060010190610fab565b50505050905090565b60045481565b600060018260405161107891906115cc565b908152602001604051809103902054905060045481106110cd576040517f08c379a00000000000000000000000000000000000000000000000000000000081526004016110c4906116d6565b60405180910390fd5b7ff05a5096d61e4686d4b77dc20985d768652606f536436749c7e215623853efe381836040516110fe929190611711565b60405180910390a16000808281526020019081526020016000206000808201600061112991906111f7565b60018201600061113991906111f7565b60028201600061114991906111f7565b505060018260405161115b91906115cc565b9081526020016040518091039020600090555050565b82805461117d906118ce565b90600052602060002090601f01602090048101928261119f57600085556111e6565b82601f106111b857805160ff19168380011785556111e6565b828001600101855582156111e6579182015b828111156111e55782518255916020019190600101906111ca565b5b5090506111f39190611237565b5090565b508054611203906118ce565b6000825580601f106112155750611234565b601f0160209004906000526020600020908101906112339190611237565b5b50565b5b80821115611250576000816000905550600101611238565b5090565b6000611267611262846117cc565b61179b565b90508281526020810184848401111561127f57600080fd5b61128a84828561188c565b509392505050565b600082601f8301126112a357600080fd5b81356112b3848260208601611254565b91505092915050565b6000813590506112cb816119e7565b92915050565b6000602082840312156112e357600080fd5b600082013567ffffffffffffffff8111156112fd57600080fd5b61130984828501611292565b91505092915050565b60008060006060848603121561132757600080fd5b600084013567ffffffffffffffff81111561134157600080fd5b61134d86828701611292565b935050602084013567ffffffffffffffff81111561136a57600080fd5b61137686828701611292565b925050604084013567ffffffffffffffff81111561139357600080fd5b61139f86828701611292565b9150509250925092565b6000602082840312156113bb57600080fd5b60006113c9848285016112bc565b91505092915050565b60006113de838361145b565b905092915050565b60006113f182611821565b6113fb8185611844565b93508360208202850161140d856117fc565b8060005b85811015611449578484038952815161142a85826113d2565b945061143583611837565b925060208a01995050600181019050611411565b50829750879550505050505092915050565b60006114668261182c565b6114708185611855565b935061148081856020860161189b565b611489816119d6565b840191505092915050565b600061149f8261182c565b6114a98185611866565b93506114b981856020860161189b565b6114c2816119d6565b840191505092915050565b60006114d88261182c565b6114e28185611877565b93506114f281856020860161189b565b80840191505092915050565b6000815461150b816118ce565b6115158186611877565b94506001821660008114611530576001811461154157611574565b60ff19831686528186019350611574565b61154a8561180c565b60005b8381101561156c5781548189015260018201915060208101905061154d565b838801955050505b50505092915050565b600061158a601183611866565b91507f50726f64756374206e6f7420666f756e640000000000000000000000000000006000830152602082019050919050565b6115c681611882565b82525050565b60006115d882846114cd565b915081905092915050565b60006115ef82846114fe565b915081905092915050565b6000602082019050818103600083015261161481846113e6565b905092915050565b6000606082019050818103600083015261163681866113e6565b9050818103602083015261164a81856113e6565b9050818103604083015261165e81846113e6565b9050949350505050565b600060208201905081810360008301526116828184611494565b905092915050565b600060608201905081810360008301526116a48186611494565b905081810360208301526116b88185611494565b905081810360408301526116cc8184611494565b9050949350505050565b600060208201905081810360008301526116ef8161157d565b9050919050565b600060208201905061170b60008301846115bd565b92915050565b600060408201905061172660008301856115bd565b81810360208301526117388184611494565b90509392505050565b600060808201905061175660008301876115bd565b81810360208301526117688186611494565b9050818103604083015261177c8185611494565b905081810360608301526117908184611494565b905095945050505050565b6000604051905081810181811067ffffffffffffffff821117156117c2576117c16119a7565b5b8060405250919050565b600067ffffffffffffffff8211156117e7576117e66119a7565b5b601f19601f8301169050602081019050919050565b6000819050602082019050919050565b60008190508160005260206000209050919050565b600081519050919050565b600081519050919050565b6000602082019050919050565b600082825260208201905092915050565b600082825260208201905092915050565b600082825260208201905092915050565b600081905092915050565b6000819050919050565b82818337600083830152505050565b60005b838110156118b957808201518184015260208101905061189e565b838111156118c8576000848401525b50505050565b600060028204905060018216806118e657607f821691505b602082108114156118fa576118f9611978565b5b50919050565b600061190b82611882565b91507fffffffffffffffffffffffffffffffffffffffffffffffffffffffffffffffff82141561193e5761193d611949565b5b600182019050919050565b7f4e487b7100000000000000000000000000000000000000000000000000000000600052601160045260246000fd5b7f4e487b7100000000000000000000000000000000000000000000000000000000600052602260045260246000fd5b7f4e487b7100000000000000000000000000000000000000000000000000000000600052604160045260246000fd5b6000601f19601f8301169050919050565b6119f081611882565b81146119fb57600080fd5b5056fea264697066735822122009b0bcc6f9e39cd72f69d9d5f61a5a111c0e209e6aec2392bc722622f0dd995b64736f6c63430008000033",
  "immutableReferences": {},
  "source": "// SPDX-License-Identifier: MIT\r\npragma solidity ^0.8.0;\r\n\r\ncontract Item {\r\n    struct Product {\r\n        string productName;\r\n        string category;\r\n        string boycott;\r\n    }\r\n\r\n    mapping(uint => Product) public products;\r\n    mapping(string => uint) private productIndex;\r\n    mapping(string => bool) private categoryExists;\r\n    string[] public categories;\r\n    uint public productCount;\r\n\r\n    event ProductAdded(uint productId, string productName, string category, string boycott);\r\n    event ProductDeleted(uint productId, string productName);\r\n\r\n    function addProduct(\r\n        string memory _productName,\r\n        string memory _category,\r\n        string memory _boycott\r\n    ) public {\r\n        if (!categoryExists[_category]) {\r\n            categories.push(_category);\r\n            categoryExists[_category] = true;\r\n        }\r\n        products[productCount] = Product(_productName, _category, _boycott);\r\n        productIndex[_productName] = productCount;\r\n\r\n        emit ProductAdded(productCount, _productName, _category, _boycott);\r\n\r\n        productCount++;\r\n    }\r\n\r\n    function deleteProductByName(string memory _productName) public {\r\n        uint index = productIndex[_productName];\r\n        require(index < productCount, \"Product not found\");\r\n\r\n        emit ProductDeleted(index, _productName);\r\n\r\n        delete products[index];\r\n        delete productIndex[_productName];\r\n    }\r\n\r\n    function getAllProductNames() public view returns (string[] memory) {\r\n        string[] memory productNames = new string[](productCount);\r\n        uint counter = 0;\r\n        for (uint i = 0; i < productCount; i++) {\r\n            if (bytes(products[i].productName).length != 0) {\r\n                productNames[counter] = products[i].productName;\r\n                counter++;\r\n            }\r\n        }\r\n        return productNames;\r\n    }\r\n\r\n    function getProductsByCategory(string memory _category) public view returns (string[] memory, string[] memory, string[] memory) {\r\n        uint count = 0;\r\n        for (uint i = 0; i < productCount; i++) {\r\n            if (keccak256(abi.encodePacked(products[i].category)) == keccak256(abi.encodePacked(_category))) {\r\n                count++;\r\n            }\r\n        }\r\n\r\n        string[] memory productNames = new string[](count);\r\n        string[] memory productCategories = new string[](count);\r\n        string[] memory productBoycotts = new string[](count);\r\n\r\n        uint index = 0;\r\n        for (uint i = 0; i < productCount; i++) {\r\n            if (keccak256(abi.encodePacked(products[i].category)) == keccak256(abi.encodePacked(_category))) {\r\n                productNames[index] = products[i].productName;\r\n                productCategories[index] = products[i].category;\r\n                productBoycotts[index] = products[i].boycott;\r\n                index++;\r\n            }\r\n        }\r\n\r\n        return (productNames, productCategories, productBoycotts);\r\n    }\r\n\r\n    function getAllCategories() public view returns (string[] memory) {\r\n        return categories;\r\n    }\r\n    function checkProduct(string memory _productName) public view returns (string memory productName, string memory category, string memory boycott) {\r\n    uint index = productIndex[_productName];\r\n    require(index < productCount, \"Product not found\");\r\n    \r\n    Product memory foundProduct = products[index];\r\n    \r\n    productName = foundProduct.productName;\r\n    category = foundProduct.category;\r\n    boycott = foundProduct.boycott;\r\n}\r\n}\r\n",
  "sourcePath": "/home/enawasrah/Desktop/soli/solidity/contracts/item.sol",
  "compiler": {
    "name": "solc",
    "version": "0.8.0+commit.c7dfd78e.Emscripten.clang"
  },
  "schemaVersion": "3.4.16",
  "updatedAt": "2024-05-15T22:27:00.611Z",
  "networkType": "ethereum",
  "devdoc": {
    "kind": "dev",
    "methods": {},
    "version": 1
  },
  "userdoc": {
    "kind": "user",
    "methods": {},
    "version": 1
  }
}