{
  "contractName": "Item",
  "abi": [
    {
      "inputs": [
        {
          "internalType": "uint256",
          "name": "",
          "type": "uint256"
        }
      ],
      "name": "categorys",
      "outputs": [
        {
          "internalType": "string",
          "name": "",
          "type": "string"
        }
      ],
      "stateMutability": "view",
      "type": "function"
    },
    {
      "inputs": [
        {
          "internalType": "uint256",
          "name": "",
          "type": "uint256"
        }
      ],
      "name": "products",
      "outputs": [
        {
          "internalType": "string",
          "name": "productName",
          "type": "string"
        },
        {
          "internalType": "string",
          "name": "category",
          "type": "string"
        },
        {
          "internalType": "string",
          "name": "boycott",
          "type": "string"
        }
      ],
      "stateMutability": "view",
      "type": "function"
    },
    {
      "inputs": [],
      "name": "addProductN",
      "outputs": [
        {
          "internalType": "bool",
          "name": "sufficient",
          "type": "bool"
        }
      ],
      "stateMutability": "nonpayable",
      "type": "function"
    },
    {
      "inputs": [
        {
          "internalType": "string",
          "name": "_productName",
          "type": "string"
        },
        {
          "internalType": "string",
          "name": "_category",
          "type": "string"
        },
        {
          "internalType": "string",
          "name": "_boycott",
          "type": "string"
        }
      ],
      "name": "addProduct",
      "outputs": [],
      "stateMutability": "nonpayable",
      "type": "function"
    },
    {
      "inputs": [],
      "name": "getProducts",
      "outputs": [
        {
          "internalType": "string",
          "name": "",
          "type": "string"
        }
      ],
      "stateMutability": "view",
      "type": "function"
    },
    {
      "inputs": [
        {
          "internalType": "uint256",
          "name": "_id",
          "type": "uint256"
        }
      ],
      "name": "getProductNameById",
      "outputs": [
        {
          "internalType": "string",
          "name": "",
          "type": "string"
        }
      ],
      "stateMutability": "view",
      "type": "function"
    },
    {
      "inputs": [
        {
          "internalType": "string",
          "name": "_name",
          "type": "string"
        }
      ],
      "name": "getProductByName",
      "outputs": [
        {
          "internalType": "string",
          "name": "",
          "type": "string"
        }
      ],
      "stateMutability": "view",
      "type": "function"
    },
    {
      "inputs": [],
      "name": "getAllProductNames",
      "outputs": [
        {
          "internalType": "string[]",
          "name": "",
          "type": "string[]"
        }
      ],
      "stateMutability": "view",
      "type": "function"
    },
    {
      "inputs": [
        {
          "internalType": "string",
          "name": "_category",
          "type": "string"
        },
        {
          "internalType": "uint256",
          "name": "_numberOfProducts",
          "type": "uint256"
        }
      ],
      "name": "getProductsByCategory",
      "outputs": [
        {
          "internalType": "string",
          "name": "",
          "type": "string"
        }
      ],
      "stateMutability": "view",
      "type": "function"
    },
    {
      "inputs": [
        {
          "internalType": "string",
          "name": "_category",
          "type": "string"
        },
        {
          "internalType": "uint256",
          "name": "_numberOfProducts",
          "type": "uint256"
        }
      ],
      "name": "getProductsByCategoryWhenNotBoycott",
      "outputs": [
        {
          "internalType": "string",
          "name": "",
          "type": "string"
        }
      ],
      "stateMutability": "view",
      "type": "function"
    },
    {
      "inputs": [],
      "name": "getAllCategories",
      "outputs": [
        {
          "internalType": "string[]",
          "name": "",
          "type": "string[]"
        }
      ],
      "stateMutability": "view",
      "type": "function"
    }
  ],
  "bytecode": "0x608060405234801561001057600080fd5b50612583806100206000396000f3fe608060405234801561001057600080fd5b50600436106100a95760003560e01c80639f79c39c116100715780639f79c39c1461017a578063add14aa1146101aa578063b3b5a3ec146101c8578063c29b2f20146101f8578063d4290f8314610216578063dadd0a5714610246576100a9565b80630e34b00e146100ae578063272ada97146100ca57806330644017146100fa5780634296d1921461012a5780637acc0b2014610148575b600080fd5b6100c860048036038101906100c391906118ce565b610264565b005b6100e460048036038101906100df91906119b9565b610410565b6040516100f191906121dc565b60405180910390f35b610114600480360381019061010f9190611965565b610534565b60405161012191906121dc565b60405180910390f35b610132610898565b60405161013f91906121c1565b60405180910390f35b610162600480360381019061015d91906119b9565b61094b565b604051610171939291906121fe565b60405180910390f35b610194600480360381019061018f9190611965565b610b1d565b6040516101a191906121dc565b60405180910390f35b6101b2610f20565b6040516101bf919061219f565b60405180910390f35b6101e260048036038101906101dd91906119b9565b6110e1565b6040516101ef91906121dc565b60405180910390f35b61020061118d565b60405161020d91906121dc565b60405180910390f35b610230600480360381019061022b919061188d565b6113e0565b60405161023d91906121dc565b60405180910390f35b61024e611694565b60405161025b919061219f565b60405180910390f35b6000805b60018054905081101561032857836040516020016102869190611f1c565b60405160208183030381529060405280519060200120600182815481106102d6577f4e487b7100000000000000000000000000000000000000000000000000000000600052603260045260246000fd5b906000526020600020016040516020016102f09190612173565b6040516020818303038152906040528051906020012014156103155760019150610328565b80806103209061244f565b915050610268565b508061036b5760018390806001815401808255809150506001900390600052602060002001600090919091909150908051906020019061036992919061176d565b505b6000604051806060016040528086815260200185815260200184815250908060018154018082558091505060019003906000526020600020906003020160009091909190915060008201518160000190805190602001906103cd92919061176d565b5060208201518160010190805190602001906103ea92919061176d565b50604082015181600201908051906020019061040792919061176d565b50505050505050565b60606000805490508210610459576040517f08c379a00000000000000000000000000000000000000000000000000000000081526004016104509061224a565b60405180910390fd5b60008281548110610493577f4e487b7100000000000000000000000000000000000000000000000000000000600052603260045260246000fd5b906000526020600020906003020160000180546104af9061241d565b80601f01602080910402602001604051908101604052809291908181526020018280546104db9061241d565b80156105285780601f106104fd57610100808354040283529160200191610528565b820191906000526020600020905b81548152906001019060200180831161050b57829003601f168201915b50505050509050919050565b6060600082101561057a576040517f08c379a00000000000000000000000000000000000000000000000000000000081526004016105719061228a565b60405180910390fd5b60006040518060400160405280600181526020017f5b0000000000000000000000000000000000000000000000000000000000000081525090506000805b60008054905081101561086a57856040516020016105d69190611f1c565b6040516020818303038152906040528051906020012060008281548110610626577f4e487b7100000000000000000000000000000000000000000000000000000000600052603260045260246000fd5b90600052602060002090600302016001016040516020016106479190612173565b60405160208183030381529060405280519060200120141561085757826040516020016106749190612025565b604051602081830303815290604052925082600082815481106106c0577f4e487b7100000000000000000000000000000000000000000000000000000000600052603260045260246000fd5b90600052602060002090600302016000016040516020016106e2929190611f33565b6040516020818303038152906040529250826000828154811061072e577f4e487b7100000000000000000000000000000000000000000000000000000000600052603260045260246000fd5b9060005260206000209060030201600101604051602001610750929190612139565b6040516020818303038152906040529250826000828154811061079c577f4e487b7100000000000000000000000000000000000000000000000000000000600052603260045260246000fd5b90600052602060002090600302016002016040516020016107be929190612069565b6040516020818303038152906040529250826040516020016107e09190612003565b604051602081830303815290604052925081806107fc9061244f565b925050600085141580156108105750848210155b1561081a5761086a565b600160008054905061082c9190612391565b81101561085657826040516020016108449190611f6d565b60405160208183030381529060405292505b5b80806108629061244f565b9150506105b8565b508160405160200161087c9190612047565b6040516020818303038152906040529150819250505092915050565b60006109446040518060400160405280600581526020017f74657374330000000000000000000000000000000000000000000000000000008152506040518060400160405280600981526020017f63617465676f72793300000000000000000000000000000000000000000000008152506040518060400160405280600c81526020017f616c7465726e6174697665330000000000000000000000000000000000000000815250610264565b6001905090565b6000818154811061095b57600080fd5b906000526020600020906003020160009150905080600001805461097e9061241d565b80601f01602080910402602001604051908101604052809291908181526020018280546109aa9061241d565b80156109f75780601f106109cc576101008083540402835291602001916109f7565b820191906000526020600020905b8154815290600101906020018083116109da57829003601f168201915b505050505090806001018054610a0c9061241d565b80601f0160208091040260200160405190810160405280929190818152602001828054610a389061241d565b8015610a855780601f10610a5a57610100808354040283529160200191610a85565b820191906000526020600020905b815481529060010190602001808311610a6857829003601f168201915b505050505090806002018054610a9a9061241d565b80601f0160208091040260200160405190810160405280929190818152602001828054610ac69061241d565b8015610b135780601f10610ae857610100808354040283529160200191610b13565b820191906000526020600020905b815481529060010190602001808311610af657829003601f168201915b5050505050905083565b60606000821015610b63576040517f08c379a0000000000000000000000000000000000000000000000000000000008152600401610b5a9061228a565b60405180910390fd5b60006040518060400160405280600181526020017f5b0000000000000000000000000000000000000000000000000000000000000081525090506000805b600080549050811015610ef25785604051602001610bbf9190611f1c565b6040516020818303038152906040528051906020012060008281548110610c0f577f4e487b7100000000000000000000000000000000000000000000000000000000600052603260045260246000fd5b9060005260206000209060030201600101604051602001610c309190612173565b60405160208183030381529060405280519060200120148015610ce65750604051602001610c5d9061218a565b6040516020818303038152906040528051906020012060008281548110610cad577f4e487b7100000000000000000000000000000000000000000000000000000000600052603260045260246000fd5b9060005260206000209060030201600201604051602001610cce9190612173565b60405160208183030381529060405280519060200120145b15610edf5782604051602001610cfc9190612025565b60405160208183030381529060405292508260008281548110610d48577f4e487b7100000000000000000000000000000000000000000000000000000000600052603260045260246000fd5b9060005260206000209060030201600001604051602001610d6a929190611f33565b60405160208183030381529060405292508260008281548110610db6577f4e487b7100000000000000000000000000000000000000000000000000000000600052603260045260246000fd5b9060005260206000209060030201600101604051602001610dd8929190612139565b60405160208183030381529060405292508260008281548110610e24577f4e487b7100000000000000000000000000000000000000000000000000000000600052603260045260246000fd5b9060005260206000209060030201600201604051602001610e46929190612069565b604051602081830303815290604052925082604051602001610e689190612003565b60405160208183030381529060405292508180610e849061244f565b92505060008514158015610e985750848210155b15610ea257610ef2565b6001600080549050610eb49190612391565b811015610ede5782604051602001610ecc9190611f6d565b60405160208183030381529060405292505b5b8080610eea9061244f565b915050610ba1565b5081604051602001610f049190612047565b6040516020818303038152906040529150819250505092915050565b60606000808054905067ffffffffffffffff811115610f68577f4e487b7100000000000000000000000000000000000000000000000000000000600052604160045260246000fd5b604051908082528060200260200182016040528015610f9b57816020015b6060815260200190600190039081610f865790505b50905060005b6000805490508110156110d95760008181548110610fe8577f4e487b7100000000000000000000000000000000000000000000000000000000600052603260045260246000fd5b906000526020600020906003020160000180546110049061241d565b80601f01602080910402602001604051908101604052809291908181526020018280546110309061241d565b801561107d5780601f106110525761010080835404028352916020019161107d565b820191906000526020600020905b81548152906001019060200180831161106057829003601f168201915b50505050508282815181106110bb577f4e487b7100000000000000000000000000000000000000000000000000000000600052603260045260246000fd5b602002602001018190525080806110d19061244f565b915050610fa1565b508091505090565b600181815481106110f157600080fd5b90600052602060002001600091509050805461110c9061241d565b80601f01602080910402602001604051908101604052809291908181526020018280546111389061241d565b80156111855780601f1061115a57610100808354040283529160200191611185565b820191906000526020600020905b81548152906001019060200180831161116857829003601f168201915b505050505081565b606060006040518060400160405280600281526020017f205b000000000000000000000000000000000000000000000000000000000000815250905060005b6000805490508110156113b657816040516020016111ea91906120a3565b60405160208183030381529060405291508160008281548110611236577f4e487b7100000000000000000000000000000000000000000000000000000000600052603260045260246000fd5b90600052602060002090600302016000016040516020016112589291906120c5565b604051602081830303815290604052915081600082815481106112a4577f4e487b7100000000000000000000000000000000000000000000000000000000600052603260045260246000fd5b90600052602060002090600302016001016040516020016112c69291906120c5565b60405160208183030381529060405291508160008281548110611312577f4e487b7100000000000000000000000000000000000000000000000000000000600052603260045260246000fd5b90600052602060002090600302016002016040516020016113349291906120ff565b60405160208183030381529060405291508160405160200161135691906120a3565b604051602081830303815290604052915060016000805490506113799190612391565b8110156113a357816040516020016113919190611f6d565b60405160208183030381529060405291505b80806113ae9061244f565b9150506111cc565b50806040516020016113c89190612047565b60405160208183030381529060405290508091505090565b606060005b60008054905081101561165357826040516020016114039190611f1c565b6040516020818303038152906040528051906020012060008281548110611453577f4e487b7100000000000000000000000000000000000000000000000000000000600052603260045260246000fd5b90600052602060002090600302016000016040516020016114749190612173565b6040516020818303038152906040528051906020012014156116405760006040518060400160405280600181526020017f5b0000000000000000000000000000000000000000000000000000000000000081525090508060008381548110611505577f4e487b7100000000000000000000000000000000000000000000000000000000600052603260045260246000fd5b9060005260206000209060030201600001604051602001611527929190611f8f565b60405160208183030381529060405290508060008381548110611573577f4e487b7100000000000000000000000000000000000000000000000000000000600052603260045260246000fd5b9060005260206000209060030201600101604051602001611595929190611f8f565b604051602081830303815290604052905080600083815481106115e1577f4e487b7100000000000000000000000000000000000000000000000000000000600052603260045260246000fd5b9060005260206000209060030201600201604051602001611603929190611fc9565b6040516020818303038152906040529050806040516020016116259190612047565b6040516020818303038152906040529050809250505061168f565b808061164b9061244f565b9150506113e5565b506040517f08c379a00000000000000000000000000000000000000000000000000000000081526004016116869061226a565b60405180910390fd5b919050565b60606001805480602002602001604051908101604052809291908181526020016000905b828210156117645783829060005260206000200180546116d79061241d565b80601f01602080910402602001604051908101604052809291908181526020018280546117039061241d565b80156117505780601f1061172557610100808354040283529160200191611750565b820191906000526020600020905b81548152906001019060200180831161173357829003601f168201915b5050505050815260200190600101906116b8565b50505050905090565b8280546117799061241d565b90600052602060002090601f01602090048101928261179b57600085556117e2565b82601f106117b457805160ff19168380011785556117e2565b828001600101855582156117e2579182015b828111156117e15782518255916020019190600101906117c6565b5b5090506117ef91906117f3565b5090565b5b8082111561180c5760008160009055506001016117f4565b5090565b600061182361181e846122db565b6122aa565b90508281526020810184848401111561183b57600080fd5b6118468482856123db565b509392505050565b600082601f83011261185f57600080fd5b813561186f848260208601611810565b91505092915050565b60008135905061188781612536565b92915050565b60006020828403121561189f57600080fd5b600082013567ffffffffffffffff8111156118b957600080fd5b6118c58482850161184e565b91505092915050565b6000806000606084860312156118e357600080fd5b600084013567ffffffffffffffff8111156118fd57600080fd5b6119098682870161184e565b935050602084013567ffffffffffffffff81111561192657600080fd5b6119328682870161184e565b925050604084013567ffffffffffffffff81111561194f57600080fd5b61195b8682870161184e565b9150509250925092565b6000806040838503121561197857600080fd5b600083013567ffffffffffffffff81111561199257600080fd5b61199e8582860161184e565b92505060206119af85828601611878565b9150509250929050565b6000602082840312156119cb57600080fd5b60006119d984828501611878565b91505092915050565b60006119ee8383611a7a565b905092915050565b6000611a0182612330565b611a0b8185612353565b935083602082028501611a1d8561230b565b8060005b85811015611a595784840389528151611a3a85826119e2565b9450611a4583612346565b925060208a01995050600181019050611a21565b50829750879550505050505092915050565b611a74816123c5565b82525050565b6000611a858261233b565b611a8f8185612364565b9350611a9f8185602086016123ea565b611aa881612525565b840191505092915050565b6000611abe8261233b565b611ac88185612375565b9350611ad88185602086016123ea565b611ae181612525565b840191505092915050565b6000611af78261233b565b611b018185612386565b9350611b118185602086016123ea565b80840191505092915050565b60008154611b2a8161241d565b611b348186612386565b94506001821660008114611b4f5760018114611b6057611b93565b60ff19831686528186019350611b93565b611b698561231b565b60005b83811015611b8b57815481890152600182019150602081019050611b6c565b838801955050505b50505092915050565b6000611ba9600f83612386565b91507f2270726f647563744e616d65223a2200000000000000000000000000000000006000830152600f82019050919050565b6000611be9600283612386565b91507f222c0000000000000000000000000000000000000000000000000000000000006000830152600282019050919050565b6000611c29600183612386565b91507f2c000000000000000000000000000000000000000000000000000000000000006000830152600182019050919050565b6000611c69601983612375565b91507f50726f6475637420494420646f6573206e6f74206578697374000000000000006000830152602082019050919050565b6000611ca9600183612386565b91507f22000000000000000000000000000000000000000000000000000000000000006000830152600182019050919050565b6000611ce9600283612386565b91507f6e6f0000000000000000000000000000000000000000000000000000000000006000830152600282019050919050565b6000611d29600183612386565b91507f7d000000000000000000000000000000000000000000000000000000000000006000830152600182019050919050565b6000611d69601183612375565b91507f50726f64756374206e6f7420666f756e640000000000000000000000000000006000830152602082019050919050565b6000611da9602583612375565b91507f4e756d626572206f662070726f64756374732063616e6e6f74206265206e656760008301527f61746976650000000000000000000000000000000000000000000000000000006020830152604082019050919050565b6000611e0f600183612386565b91507f7b000000000000000000000000000000000000000000000000000000000000006000830152600182019050919050565b6000611e4f600183612386565b91507f5d000000000000000000000000000000000000000000000000000000000000006000830152600182019050919050565b6000611e8f600b83612386565b91507f22626f79636f7474223a220000000000000000000000000000000000000000006000830152600b82019050919050565b6000611ecf600083612386565b9150600082019050919050565b6000611ee9600c83612386565b91507f2263617465676f7279223a2200000000000000000000000000000000000000006000830152600c82019050919050565b6000611f288284611aec565b915081905092915050565b6000611f3f8285611aec565b9150611f4a82611b9c565b9150611f568284611b1d565b9150611f6182611bdc565b91508190509392505050565b6000611f798284611aec565b9150611f8482611c1c565b915081905092915050565b6000611f9b8285611aec565b9150611fa682611c9c565b9150611fb28284611b1d565b9150611fbd82611bdc565b91508190509392505050565b6000611fd58285611aec565b9150611fe082611c9c565b9150611fec8284611b1d565b9150611ff782611c9c565b91508190509392505050565b600061200f8284611aec565b915061201a82611d1c565b915081905092915050565b60006120318284611aec565b915061203c82611e02565b915081905092915050565b60006120538284611aec565b915061205e82611e42565b915081905092915050565b60006120758285611aec565b915061208082611e82565b915061208c8284611b1d565b915061209782611c9c565b91508190509392505050565b60006120af8284611aec565b91506120ba82611ec2565b915081905092915050565b60006120d18285611aec565b91506120dc82611ec2565b91506120e88284611b1d565b91506120f382611bdc565b91508190509392505050565b600061210b8285611aec565b915061211682611ec2565b91506121228284611b1d565b915061212d82611c9c565b91508190509392505050565b60006121458285611aec565b915061215082611edc565b915061215c8284611b1d565b915061216782611bdc565b91508190509392505050565b600061217f8284611b1d565b915081905092915050565b600061219582611cdc565b9150819050919050565b600060208201905081810360008301526121b981846119f6565b905092915050565b60006020820190506121d66000830184611a6b565b92915050565b600060208201905081810360008301526121f68184611ab3565b905092915050565b600060608201905081810360008301526122188186611ab3565b9050818103602083015261222c8185611ab3565b905081810360408301526122408184611ab3565b9050949350505050565b6000602082019050818103600083015261226381611c5c565b9050919050565b6000602082019050818103600083015261228381611d5c565b9050919050565b600060208201905081810360008301526122a381611d9c565b9050919050565b6000604051905081810181811067ffffffffffffffff821117156122d1576122d06124f6565b5b8060405250919050565b600067ffffffffffffffff8211156122f6576122f56124f6565b5b601f19601f8301169050602081019050919050565b6000819050602082019050919050565b60008190508160005260206000209050919050565b600081519050919050565b600081519050919050565b6000602082019050919050565b600082825260208201905092915050565b600082825260208201905092915050565b600082825260208201905092915050565b600081905092915050565b600061239c826123d1565b91506123a7836123d1565b9250828210156123ba576123b9612498565b5b828203905092915050565b60008115159050919050565b6000819050919050565b82818337600083830152505050565b60005b838110156124085780820151818401526020810190506123ed565b83811115612417576000848401525b50505050565b6000600282049050600182168061243557607f821691505b60208210811415612449576124486124c7565b5b50919050565b600061245a826123d1565b91507fffffffffffffffffffffffffffffffffffffffffffffffffffffffffffffffff82141561248d5761248c612498565b5b600182019050919050565b7f4e487b7100000000000000000000000000000000000000000000000000000000600052601160045260246000fd5b7f4e487b7100000000000000000000000000000000000000000000000000000000600052602260045260246000fd5b7f4e487b7100000000000000000000000000000000000000000000000000000000600052604160045260246000fd5b6000601f19601f8301169050919050565b61253f816123d1565b811461254a57600080fd5b5056fea2646970667358221220265140282d2007962e587e3c706cd9104c00499c9ebb66e50ae49c4677c9dee264736f6c63430008000033",
  "immutableReferences": {},
  "source": "// SPDX-License-Identifier: MIT\r\npragma solidity ^0.8.0;\r\n\r\ncontract Migrations {\r\n    address public owner;\r\n    uint public lastCompletedMigration;\r\n\r\n    modifier restricted() {\r\n        require(msg.sender == owner, \"Only the owner can call this function\");\r\n        _;\r\n    }\r\n\r\n    function setCompleted(uint completed) public restricted {\r\n        lastCompletedMigration = completed;\r\n    }\r\n}\r\n\r\ncontract Item {\r\n    struct Product {\r\n        string productName;\r\n        string category;\r\n        string boycott;\r\n    }\r\n\r\n    Product[] public products;\r\n    string[] public categorys;\r\n    function addProductN() public returns (bool sufficient) {\r\n        addProduct(\"test3\", \"category3\", \"alternative3\");\r\n        return true;\r\n    }\r\n\r\n    function addProduct(\r\n        string memory _productName,\r\n        string memory _category,\r\n        string memory _boycott\r\n    ) public {\r\n        bool categoryExists = false;\r\n        for (uint i = 0; i < categorys.length; i++) {\r\n            if (\r\n                keccak256(abi.encodePacked(categorys[i])) ==\r\n                keccak256(abi.encodePacked(_category))\r\n            ) {\r\n                categoryExists = true;\r\n                break;\r\n            }\r\n        }\r\n        if (!categoryExists) {\r\n            categorys.push(_category);\r\n        }\r\n        products.push(Product(_productName, _category, _boycott));\r\n    }\r\n\r\n    function getProducts() public view returns (string memory) {\r\n        string memory jsonString = \" [\";\r\n\r\n        for (uint i = 0; i < products.length; i++) {\r\n            jsonString = string(abi.encodePacked(jsonString, \"\"));\r\n            jsonString = string(\r\n                abi.encodePacked(jsonString, \"\", products[i].productName, '\",')\r\n            );\r\n            jsonString = string(\r\n                abi.encodePacked(jsonString, \"\", products[i].category, '\",')\r\n            );\r\n            jsonString = string(\r\n                abi.encodePacked(jsonString, \"\", products[i].boycott, '\"')\r\n            );\r\n            jsonString = string(abi.encodePacked(jsonString, \"\"));\r\n            if (i < products.length - 1) {\r\n                jsonString = string(abi.encodePacked(jsonString, \",\"));\r\n            }\r\n        }\r\n        jsonString = string(abi.encodePacked(jsonString, \"]\"));\r\n\r\n        return jsonString;\r\n    }\r\n\r\n    function getProductNameById(uint _id) public view returns (string memory) {\r\n        require(_id < products.length, \"Product ID does not exist\");\r\n        return products[_id].productName;\r\n    }\r\n\r\n    function getProductByName(\r\n        string memory _name\r\n    ) public view returns (string memory) {\r\n        for (uint i = 0; i < products.length; i++) {\r\n            if (\r\n                keccak256(abi.encodePacked(products[i].productName)) ==\r\n                keccak256(abi.encodePacked(_name))\r\n            ) {\r\n                string memory jsonString = \"[\";\r\n                jsonString = string(\r\n                    abi.encodePacked(\r\n                        jsonString,\r\n                        '\"',\r\n                        products[i].productName,\r\n                        '\",'\r\n                    )\r\n                );\r\n                jsonString = string(\r\n                    abi.encodePacked(\r\n                        jsonString,\r\n                        '\"',\r\n                        products[i].category,\r\n                        '\",'\r\n                    )\r\n                );\r\n                jsonString = string(\r\n                    abi.encodePacked(jsonString, '\"', products[i].boycott, '\"')\r\n                );\r\n                jsonString = string(abi.encodePacked(jsonString, \"]\"));\r\n                return jsonString;\r\n            }\r\n        }\r\n        revert(\"Product not found\");\r\n    }\r\n    function getAllProductNames() public view returns (string[] memory) {\r\n        string[] memory productNames = new string[](products.length);\r\n        for (uint i = 0; i < products.length; i++) {\r\n            productNames[i] = products[i].productName;\r\n        }\r\n        return productNames;\r\n    }\r\n\r\n    function getProductsByCategory(\r\n        string memory _category,\r\n        uint _numberOfProducts\r\n    ) public view returns (string memory) {\r\n        require(\r\n            _numberOfProducts >= 0,\r\n            \"Number of products cannot be negative\"\r\n        );\r\n\r\n        string memory jsonString = \"[\";\r\n        uint count = 0;\r\n\r\n        for (uint i = 0; i < products.length; i++) {\r\n            if (\r\n                keccak256(abi.encodePacked(products[i].category)) ==\r\n                keccak256(abi.encodePacked(_category))\r\n            ) {\r\n                jsonString = string(abi.encodePacked(jsonString, \"{\"));\r\n                jsonString = string(\r\n                    abi.encodePacked(\r\n                        jsonString,\r\n                        '\"productName\":\"',\r\n                        products[i].productName,\r\n                        '\",'\r\n                    )\r\n                );\r\n                jsonString = string(\r\n                    abi.encodePacked(\r\n                        jsonString,\r\n                        '\"category\":\"',\r\n                        products[i].category,\r\n                        '\",'\r\n                    )\r\n                );\r\n                jsonString = string(\r\n                    abi.encodePacked(\r\n                        jsonString,\r\n                        '\"boycott\":\"',\r\n                        products[i].boycott,\r\n                        '\"'\r\n                    )\r\n                );\r\n                jsonString = string(abi.encodePacked(jsonString, \"}\"));\r\n                count++;\r\n                if (_numberOfProducts != 0 && count >= _numberOfProducts) {\r\n                    break;\r\n                }\r\n                if (i < products.length - 1) {\r\n                    jsonString = string(abi.encodePacked(jsonString, \",\"));\r\n                }\r\n            }\r\n        }\r\n\r\n        jsonString = string(abi.encodePacked(jsonString, \"]\"));\r\n        return jsonString;\r\n    }\r\n    function getProductsByCategoryWhenNotBoycott(\r\n        string memory _category,\r\n        uint _numberOfProducts\r\n    ) public view returns (string memory) {\r\n        require(\r\n            _numberOfProducts >= 0,\r\n            \"Number of products cannot be negative\"\r\n        );\r\n\r\n        string memory jsonString = \"[\";\r\n        uint count = 0;\r\n\r\n        for (uint i = 0; i < products.length; i++) {\r\n            if (\r\n                keccak256(abi.encodePacked(products[i].category)) ==\r\n                keccak256(abi.encodePacked(_category)) &&\r\n                keccak256(abi.encodePacked(products[i].boycott)) ==\r\n                keccak256(abi.encodePacked(\"no\"))\r\n            ) {\r\n                jsonString = string(abi.encodePacked(jsonString, \"{\"));\r\n                jsonString = string(\r\n                    abi.encodePacked(\r\n                        jsonString,\r\n                        '\"productName\":\"',\r\n                        products[i].productName,\r\n                        '\",'\r\n                    )\r\n                );\r\n                jsonString = string(\r\n                    abi.encodePacked(\r\n                        jsonString,\r\n                        '\"category\":\"',\r\n                        products[i].category,\r\n                        '\",'\r\n                    )\r\n                );\r\n                jsonString = string(\r\n                    abi.encodePacked(\r\n                        jsonString,\r\n                        '\"boycott\":\"',\r\n                        products[i].boycott,\r\n                        '\"'\r\n                    )\r\n                );\r\n                jsonString = string(abi.encodePacked(jsonString, \"}\"));\r\n                count++;\r\n                if (_numberOfProducts != 0 && count >= _numberOfProducts) {\r\n                    break;\r\n                }\r\n                if (i < products.length - 1) {\r\n                    jsonString = string(abi.encodePacked(jsonString, \",\"));\r\n                }\r\n            }\r\n        }\r\n\r\n        jsonString = string(abi.encodePacked(jsonString, \"]\"));\r\n        return jsonString;\r\n    }\r\n    function getAllCategories() public view returns (string[] memory) {\r\n        return categorys;\r\n    }\r\n}\r\n",
  "sourcePath": "/home/mnawasrah/nawasrah/solidity/contracts/item.sol",
  "compiler": {
    "name": "solc",
    "version": "0.8.0+commit.c7dfd78e.Emscripten.clang"
  },
  "schemaVersion": "3.4.16",
  "updatedAt": "2024-05-14T06:35:03.130Z",
  "devdoc": {
    "kind": "dev",
    "methods": {},
    "version": 1
  },
  "userdoc": {
    "kind": "user",
    "methods": {},
    "version": 1
  }
}