{
  "contractName": "Migrations",
  "abi": [
    {
      "inputs": [],
      "name": "lastCompletedMigration",
      "outputs": [
        {
          "internalType": "uint256",
          "name": "",
          "type": "uint256"
        }
      ],
      "stateMutability": "view",
      "type": "function"
    },
    {
      "inputs": [],
      "name": "owner",
      "outputs": [
        {
          "internalType": "address",
          "name": "",
          "type": "address"
        }
      ],
      "stateMutability": "view",
      "type": "function"
    },
    {
      "inputs": [
        {
          "internalType": "uint256",
          "name": "completed",
          "type": "uint256"
        }
      ],
      "name": "setCompleted",
      "outputs": [],
      "stateMutability": "nonpayable",
      "type": "function"
    }
  ],
  "bytecode": "0x608060405234801561001057600080fd5b50610312806100206000396000f3fe608060405234801561001057600080fd5b50600436106100415760003560e01c80638da5cb5b14610046578063fbdbad3c14610064578063fdacd57614610082575b600080fd5b61004e61009e565b60405161005b9190610222565b60405180910390f35b61006c6100c2565b604051610079919061025d565b60405180910390f35b61009c60048036038101906100979190610175565b6100c8565b005b60008054906101000a900473ffffffffffffffffffffffffffffffffffffffff1681565b60015481565b60008054906101000a900473ffffffffffffffffffffffffffffffffffffffff1673ffffffffffffffffffffffffffffffffffffffff163373ffffffffffffffffffffffffffffffffffffffff1614610156576040517f08c379a000000000000000000000000000000000000000000000000000000000815260040161014d9061023d565b60405180910390fd5b8060018190555050565b60008135905061016f816102c5565b92915050565b60006020828403121561018757600080fd5b600061019584828501610160565b91505092915050565b6101a781610289565b82525050565b60006101ba602583610278565b91507f4f6e6c7920746865206f776e65722063616e2063616c6c20746869732066756e60008301527f6374696f6e0000000000000000000000000000000000000000000000000000006020830152604082019050919050565b61021c816102bb565b82525050565b6000602082019050610237600083018461019e565b92915050565b60006020820190508181036000830152610256816101ad565b9050919050565b60006020820190506102726000830184610213565b92915050565b600082825260208201905092915050565b60006102948261029b565b9050919050565b600073ffffffffffffffffffffffffffffffffffffffff82169050919050565b6000819050919050565b6102ce816102bb565b81146102d957600080fd5b5056fea2646970667358221220045e7d10e46c9c1d74a68c11badd56c9c5c20a3f58565cb76c18b3ec8be8ee6064736f6c63430008000033",
  "immutableReferences": {},
  "source": "// SPDX-License-Identifier: MIT\r\npragma solidity ^0.8.0;\r\n\r\ncontract Migrations {\r\n    address public owner;\r\n    uint public lastCompletedMigration;\r\n\r\n    modifier restricted() {\r\n        require(msg.sender == owner, \"Only the owner can call this function\");\r\n        _;\r\n    }\r\n\r\n    function setCompleted(uint completed) public restricted {\r\n        lastCompletedMigration = completed;\r\n    }\r\n}\r\n\r\ncontract Item {\r\n    struct Product {\r\n        string productName;\r\n        string category;\r\n        string boycott;\r\n    }\r\n\r\n    Product[] public products;\r\n    string[] public categorys;\r\n    function addProductN() public returns (bool sufficient) {\r\n        addProduct(\"test3\", \"category3\", \"alternative3\");\r\n        return true;\r\n    }\r\n\r\n    function addProduct(\r\n        string memory _productName,\r\n        string memory _category,\r\n        string memory _boycott\r\n    ) public {\r\n        bool categoryExists = false;\r\n        for (uint i = 0; i < categorys.length; i++) {\r\n            if (\r\n                keccak256(abi.encodePacked(categorys[i])) ==\r\n                keccak256(abi.encodePacked(_category))\r\n            ) {\r\n                categoryExists = true;\r\n                break;\r\n            }\r\n        }\r\n        if (!categoryExists) {\r\n            categorys.push(_category);\r\n        }\r\n        products.push(Product(_productName, _category, _boycott));\r\n    }\r\n\r\n    function getProducts() public view returns (string memory) {\r\n        string memory jsonString = \" [\";\r\n\r\n        for (uint i = 0; i < products.length; i++) {\r\n            jsonString = string(abi.encodePacked(jsonString, \"\"));\r\n            jsonString = string(\r\n                abi.encodePacked(jsonString, \"\", products[i].productName, '\",')\r\n            );\r\n            jsonString = string(\r\n                abi.encodePacked(jsonString, \"\", products[i].category, '\",')\r\n            );\r\n            jsonString = string(\r\n                abi.encodePacked(jsonString, \"\", products[i].boycott, '\"')\r\n            );\r\n            jsonString = string(abi.encodePacked(jsonString, \"\"));\r\n            if (i < products.length - 1) {\r\n                jsonString = string(abi.encodePacked(jsonString, \",\"));\r\n            }\r\n        }\r\n        jsonString = string(abi.encodePacked(jsonString, \"]\"));\r\n\r\n        return jsonString;\r\n    }\r\n\r\n    function getProductNameById(uint _id) public view returns (string memory) {\r\n        require(_id < products.length, \"Product ID does not exist\");\r\n        return products[_id].productName;\r\n    }\r\n\r\n    function getProductByName(\r\n        string memory _name\r\n    ) public view returns (string memory) {\r\n        for (uint i = 0; i < products.length; i++) {\r\n            if (\r\n                keccak256(abi.encodePacked(products[i].productName)) ==\r\n                keccak256(abi.encodePacked(_name))\r\n            ) {\r\n                string memory jsonString = \"[\";\r\n                jsonString = string(\r\n                    abi.encodePacked(\r\n                        jsonString,\r\n                        '\"',\r\n                        products[i].productName,\r\n                        '\",'\r\n                    )\r\n                );\r\n                jsonString = string(\r\n                    abi.encodePacked(\r\n                        jsonString,\r\n                        '\"',\r\n                        products[i].category,\r\n                        '\",'\r\n                    )\r\n                );\r\n                jsonString = string(\r\n                    abi.encodePacked(jsonString, '\"', products[i].boycott, '\"')\r\n                );\r\n                jsonString = string(abi.encodePacked(jsonString, \"]\"));\r\n                return jsonString;\r\n            }\r\n        }\r\n        revert(\"Product not found\");\r\n    }\r\n    function getAllProductNames() public view returns (string[] memory) {\r\n        string[] memory productNames = new string[](products.length);\r\n        for (uint i = 0; i < products.length; i++) {\r\n            productNames[i] = products[i].productName;\r\n        }\r\n        return productNames;\r\n    }\r\n    function getProductsByCategory(\r\n        string memory _category,\r\n        uint _numberOfProducts\r\n    ) public view returns (string memory) {\r\n        require(\r\n            _numberOfProducts >= 0,\r\n            \"Number of products cannot be negative\"\r\n        );\r\n\r\n        string memory jsonString = \"[\";\r\n        uint count = 0;\r\n\r\n        for (uint i = 0; i < products.length; i++) {\r\n            if (\r\n                keccak256(abi.encodePacked(products[i].category)) ==\r\n                keccak256(abi.encodePacked(_category))\r\n            ) {\r\n                jsonString = string(abi.encodePacked(jsonString, \"{\"));\r\n                jsonString = string(\r\n                    abi.encodePacked(\r\n                        jsonString,\r\n                        '\"productName\":\"',\r\n                        products[i].productName,\r\n                        '\",'\r\n                    )\r\n                );\r\n                jsonString = string(\r\n                    abi.encodePacked(\r\n                        jsonString,\r\n                        '\"category\":\"',\r\n                        products[i].category,\r\n                        '\",'\r\n                    )\r\n                );\r\n                jsonString = string(\r\n                    abi.encodePacked(\r\n                        jsonString,\r\n                        '\"boycott\":\"',\r\n                        products[i].boycott,\r\n                        '\"'\r\n                    )\r\n                );\r\n                jsonString = string(abi.encodePacked(jsonString, \"}\"));\r\n                count++;\r\n                if (_numberOfProducts != 0 && count >= _numberOfProducts) {\r\n                    break;\r\n                }\r\n                if (i < products.length - 1) {\r\n                    jsonString = string(abi.encodePacked(jsonString, \",\"));\r\n                }\r\n            }\r\n        }\r\n\r\n        jsonString = string(abi.encodePacked(jsonString, \"]\"));\r\n        return jsonString;\r\n    }\r\n    function getProductsByCategoryWhenNotBoycott(\r\n        string memory _category,\r\n        uint _numberOfProducts\r\n    ) public view returns (string memory) {\r\n        require(\r\n            _numberOfProducts >= 0,\r\n            \"Number of products cannot be negative\"\r\n        );\r\n\r\n        string memory jsonString = \"[\";\r\n        uint count = 0;\r\n\r\n        for (uint i = 0; i < products.length; i++) {\r\n            if (\r\n                keccak256(abi.encodePacked(products[i].category)) ==\r\n                keccak256(abi.encodePacked(_category)) &&\r\n                keccak256(abi.encodePacked(products[i].boycott)) ==\r\n                keccak256(abi.encodePacked(\"no\"))\r\n            ) {\r\n                jsonString = string(abi.encodePacked(jsonString, \"{\"));\r\n                jsonString = string(\r\n                    abi.encodePacked(\r\n                        jsonString,\r\n                        '\"productName\":\"',\r\n                        products[i].productName,\r\n                        '\",'\r\n                    )\r\n                );\r\n                jsonString = string(\r\n                    abi.encodePacked(\r\n                        jsonString,\r\n                        '\"category\":\"',\r\n                        products[i].category,\r\n                        '\",'\r\n                    )\r\n                );\r\n                jsonString = string(\r\n                    abi.encodePacked(\r\n                        jsonString,\r\n                        '\"boycott\":\"',\r\n                        products[i].boycott,\r\n                        '\"'\r\n                    )\r\n                );\r\n                jsonString = string(abi.encodePacked(jsonString, \"}\"));\r\n                count++;\r\n                if (_numberOfProducts != 0 && count >= _numberOfProducts) {\r\n                    break;\r\n                }\r\n                if (i < products.length - 1) {\r\n                    jsonString = string(abi.encodePacked(jsonString, \",\"));\r\n                }\r\n            }\r\n        }\r\n\r\n        jsonString = string(abi.encodePacked(jsonString, \"]\"));\r\n        return jsonString;\r\n    }\r\n    function getAllCategories() public view returns (string[] memory) {\r\n        return categorys;\r\n    }\r\n\r\n    // Function to update product data by ID\r\n    function updateProductById(\r\n        uint _id,\r\n        string memory _productName,\r\n        string memory _category,\r\n        string memory _boycott\r\n    ) public {\r\n        require(_id < products.length, \"Product ID does not exist\");\r\n        products[_id].productName = _productName;\r\n        products[_id].category = _category;\r\n        products[_id].boycott = _boycott;\r\n    }\r\n\r\n    // Function to add category to the categories array\r\n    function addCategory(string memory _category) public {\r\n        categorys.push(_category);\r\n    }\r\n\r\n\r\nfunction deleteProductByName(string memory _productName) public {\r\n    bool productFound = false;\r\n    uint index;\r\n    bytes32 productHash = keccak256(abi.encodePacked(_productName));\r\n    for (uint i = 0; i < products.length; i++) {\r\n        if (keccak256(abi.encodePacked(products[i].productName)) == productHash) {\r\n            productFound = true;\r\n            index = i;\r\n            break;\r\n        }\r\n    }\r\n    require(productFound, \"Product not found\");\r\n    \r\n    for (uint j = index; j < products.length - 1; j++) {\r\n        products[j] = products[j + 1];\r\n    }\r\n    products.pop();\r\n}\r\n    function getAllProductsData() public view returns (string memory) {\r\n    string memory jsonString = \"[\";\r\n\r\n    for (uint i = 0; i < products.length; i++) {\r\n        jsonString = string(abi.encodePacked(jsonString, \"[\"));\r\n        jsonString = string(abi.encodePacked(jsonString, '\"', products[i].productName, '\",'));\r\n        jsonString = string(abi.encodePacked(jsonString, '\"', products[i].category, '\",'));\r\n        jsonString = string(abi.encodePacked(jsonString, '\"', products[i].boycott, '\"'));\r\n        jsonString = string(abi.encodePacked(jsonString, \"]\"));\r\n        if (i < products.length - 1) {\r\n            jsonString = string(abi.encodePacked(jsonString, \",\"));\r\n        }\r\n    }\r\n    jsonString = string(abi.encodePacked(jsonString, \"]\"));\r\n\r\n    return jsonString;\r\n}\r\n}\r\n",
  "sourcePath": "/home/enawasrah/Desktop/soli/solidity/contracts/item.sol",
  "compiler": {
    "name": "solc",
    "version": "0.8.0+commit.c7dfd78e.Emscripten.clang"
  },
  "schemaVersion": "3.4.16",
  "updatedAt": "2024-05-15T22:27:00.644Z",
  "networkType": "ethereum",
  "devdoc": {
    "kind": "dev",
    "methods": {},
    "version": 1
  },
  "userdoc": {
    "kind": "user",
    "methods": {},
    "version": 1
  }
}